:100000000C94E2020C940A030C940A030C940A0365
:100010000C940A030C940A030C940A030C940A032C
:100020000C940A030C940A030C940A030C94AA0A75
:100030000C940A030C940A030C940A030C940A030C
:100040000C94600A0C940A030C940A030C940A039F
:100050000C940A030C940A030C940A030C940A03EC
:100060000C94E90A0C940A0300000000003E5B4F68
:100070005B3E3E6B4F6B3E1C3E7C3E1C183C7E3C08
:10008000181C577D571C1C5E7F5E1C00183C180016
:10009000FFE7C3E7FF0018241800FFE7DBE7FF30A6
:1000A000483A060E2629792926407F050507407F14
:1000B00005253F5A3CE73C5A7F3E1C1C08081C1C87
:1000C0003E7F14227F22145F5F005F5F06097F017D
:1000D0007F006689956A606060606094A2FFA29468
:1000E00008047E040810207E201008082A1C080836
:1000F0001C2A08081E101010100C1E0C1E0C303884
:100100003E3830060E3E0E06000000000000005F84
:1001100000000007000700147F147F14242A7F2AA0
:100120001223130864623649562050000807030062
:10013000001C2241000041221C002A1C7F1C2A08AE
:10014000083E080800807030000808080808000011
:1001500060600020100804023E5149453E00427F85
:10016000400072494949462141494D331814127FD4
:100170001027454545393C4A494931412111090774
:100180003649494936464949291E000014000000F5
:1001900040340000000814224114141414140041C7
:1001A00022140802015909063E415D594E7C121184
:1001B000127C7F494949363E414141227F414141BC
:1001C0003E7F494949417F090909013E4141517337
:1001D0007F0808087F00417F41002040413F017FA8
:1001E000081422417F404040407F021C027F7F0470
:1001F00008107F3E4141413E7F090909063E4151B9
:10020000215E7F09192946264949493203017F01A8
:10021000033F4040403F1F2040201F3F4038403FA9
:10022000631408146303047804036159494D4300BF
:100230007F4141410204081020004141417F0402F6
:10024000010204404040404000030708002054548D
:1002500078407F284444383844444428384444286B
:100260007F385454541800087E090218A4A49C78BE
:100270007F0804047800447D40002040403D007F1A
:100280001028440000417F40007C047804787C08FA
:100290000404783844444438FC18242418182424CE
:1002A00018FC7C08040408485454542404043F44B3
:1002B000243C4040207C1C2040201C3C4030403CE2
:1002C00044281028444C9090907C4464544C440042
:1002D00008364100000077000000413608000201A6
:1002E0000204023C2623263C1EA1A161123A404092
:1002F000207A38545455592155557941225454780F
:1003000042215554784020545579400C1E527212A7
:100310003955555559395454545939555454580030
:1003200000457C410002457D420001457C407D1234
:1003300011127DF0282528F07C5455450020545496
:100340007C547C0A097F4932494949323A44444441
:100350003A324A4848303A4141217A3A424020787C
:10036000009DA0A07D3D4242423D3D4040403D3C7D
:1003700024FF2424487E4943662B2FFC2F2BFF09A2
:1003800029F620C0887E0903205454794100004496
:100390007D413048484A32384040227A007A0A0A81
:1003A000727D0D19317D2629292F282629292926F4
:1003B00030484D4020380808080808080808382F39
:1003C00010C8ACBA2F102834FA00007B00000814C3
:1003D0002A142222142A14085500550055AA55AA99
:1003E00055AAFF55FF55FF000000FF00101010FF39
:1003F00000141414FF001010FF00FF1010F010F094
:10040000141414FC001414F700FF0000FF00FF1484
:1004100014F404FC141417101F10101F101F1414D0
:10042000141F00101010F0000000001F101010101A
:100430001F10101010F010000000FF10101010100E
:1004400010101010FF10000000FF140000FF00FF4C
:1004500000001F10170000FC04F4141417101714E8
:1004600014F404F40000FF00F7141414141414140A
:10047000F700F7141414171410101F101F1414147D
:10048000F4141010F010F000001F101F0000001FE7
:1004900014000000FC140000F010F01010FF10FF1A
:1004A000141414FF141010101F00000000F010FFAF
:1004B000FFFFFFFFF0F0F0F0F0FFFFFF0000000093
:1004C00000FFFF0F0F0F0F0F3844443844FC4A4A17
:1004D0004A347E02020606027E027E0263554941CC
:1004E000633844443C04407E201E2006027E020203
:1004F00099A5E7A5991C2A492A1C4C7201724C3017
:100500004A4D4D303048784830BC625A463D3E49ED
:100510004949007E0101017E2A2A2A2A2A44445F91
:10052000444440514A444040444A51400000FF0185
:1005300003E080FF000008086B6B08361236243693
:10054000060F090F060000181800000010100030F8
:1005500040FF0101001F01011E00191D1712003C80
:100560003C3C3C000000000000000000240027008C
:100570002A000000000023002600290000000000DF
:10058000250028002B0004040404040404040202CF
:100590000202020203030303030301020408102002
:1005A000408001020408102001020408102000000D
:1005B0000008000201000003040700000000000022
:1005C0000000170C11241FBECFEFD8E0DEBFCDBF57
:1005D00011E0A0E0B1E0EAE1FDE102C005900D927A
:1005E000A832B107D9F721E0A8E2B1E001C01D921D
:1005F000A43FB207E1F712E0C2EED2E004C02197B7
:10060000FE010E94800EC13ED107C9F70E944D0C29
:100610000C948B0E0C9400002091C3019091C201A8
:10062000213208F04AC080919F018111FCCF32E055
:1006300030939F0131E030939E013FEF30939D0155
:1006400010929C0120939B01A2EAB1E04BE751E09C
:10065000FA013E2F341B321718F43D913193F9CF34
:1006600010927A0120917A01990F922B90937A013E
:1006700090917901913061F41092790190917A0111
:100680009093BB009091BC0093FDF8CF95EC01C016
:1006900095EE9093BC0090919F019230E1F3909180
:1006A0009D019F3F79F080919D01803241F08091C2
:1006B0009D01803331F084E005C081E003C082E019
:1006C00001C083E01092A1011092C3011092A00119
:1006D0000895CF92DF92EF92FF920F931F93CF93E3
:1006E000DF936C017A018B01C0E0D0E0CE15DF050D
:1006F00089F0D8016D918D01D601ED91FC910190A9
:10070000F081E02DC6010995892B11F47E0102C00C
:100710002196ECCFC701DF91CF911F910F91FF90F0
:10072000EF90DF90CF900895833081F028F48130EE
:1007300099F08230A1F008958730A9F08830B9F09F
:100740008430D1F4809180008F7D03C0809180003F
:100750008F7780938000089584B58F7702C084B529
:100760008F7D84BD08958091B0008F7703C0809104
:10077000B0008F7D8093B0000895CF93DF93282F32
:1007800030E0F901E255FA4F8491F901E656FA4F4B
:10079000D491F901EA57FA4FC491CC2389F0811121
:1007A0000E949403EC2FF0E0EE0FFF1FE458FA4F85
:1007B000A591B4918FB7F894EC91ED2BEC938FBF8A
:1007C000DF91CF910895CF93DF93E0EBF5E0849133
:1007D000ECE9F5E0D491E8E8F5E0C491CC2391F0A0
:1007E00081110E949403EC2FF0E0EE0FFF1FEE58F2
:1007F000FA4FA591B491EC91ED2381E090E021F4C2
:1008000080E002C080E090E0DF91CF9108953FB793
:10081000F8948091700190917101A0917201B09152
:10082000730126B5A89B05C02F3F19F00196A11DA5
:10083000B11D3FBFBA2FA92F982F8827820F911D76
:10084000A11DB11DBC01CD0143E0660F771F881FBC
:10085000991F4A95D1F708958F929F92AF92BF92B8
:10086000CF92DF92EF92FF926B017C010E9407040E
:100870004B015C01C114D104E104F104F1F00E94C8
:100880000704DC01CB0188199909AA09BB09883E34
:100890009340A105B10570F321E0C21AD108E10827
:1008A000F10888EE880E83E0981EA11CB11CC114CB
:1008B000D104E104F10419F7DDCFFF90EF90DF9050
:1008C000CF90BF90AF909F908F90089508952F92F2
:1008D0003F924F925F926F927F928F929F92AF92D0
:1008E000BF92CF92DF92EF92FF920F931F93CF931D
:1008F000DF93CDB7DEB76B970FB6F894DEBF0FBEB0
:10090000CDBF4C015A8349831F830E83FD82EC8245
:10091000CB82DC0158964D915C9159974115510558
:1009200009F0A5C018968D919C91199768177907C1
:100930000CF05AC11A968D919C911B97E981FA810E
:10094000E817F9070CF050C1D12CCB013B81F6E040
:100950003F9F800D911D1124181619060CF044C1FB
:10096000C60133E0880F991F3A95E1F749815A8112
:10097000840F951F181619060CF036C157968C91E6
:10098000811103C0203B08F02F5F55E0259F9001A7
:1009900011247E876D875B01212CC901861B970B73
:1009A00099878887A981BA811896BB87AA87B5E0FD
:1009B0002B1641F0E885F985EA0DFB1DE859FF4F3C
:1009C000349001C0312C69807A80230130FE12C03E
:1009D000D401ED91FC91BB81B13031F40480F581FB
:1009E000E02D2E813F8118C00684F785E02DEE8032
:1009F000FF801CC0EC81FD812E813F81E217F3074F
:100A0000E1F0D401ED91FC91BB81B13051F404804F
:100A1000F581E02D2C813D81A301B501C40109952B
:100A20000CC00684F785E02DEC80FD8086019601E0
:100A3000A2016D857E85C40109953694EFEF6E1A8B
:100A40007E0A4C0C5D1C2A853B856216730609F0F4
:100A5000BDCF23943FEFA31AB30A4D855E854C0D9D
:100A60005D1D5E874D8756E02512A1CFBDC0FA01FE
:100A700034963491329785919491231BA7E02A9F55
:100A8000800D911D1124FA01259134913A8B298B07
:100A9000FC0125903490FC013296349138873196D0
:100AA00044914C873196E491FC013596A49131969E
:100AB00084915B81523050F06A2E0A2E000C770828
:100AC000E82F082E000CFF0BFB87EA87FB81CF2E57
:100AD000D12C6C9C90016D9C300D7C9C300D1124B0
:100AE000A901460F571F588B4F871C82A12CEA2F54
:100AF000AA0FFF0B3B016E0E7F1E5885650F711DFF
:100B0000DB01AE0FBF1FBF8BAE8BE981FA81E80F0F
:100B1000F11D87FDFA95F98FE88F9C85A91608F0DD
:100B200063C08A2D90E04A855B85480F591F4C9D14
:100B300090014D9D300D5C9D300D1124A981BA812D
:100B4000A20FB31FBE87AD877B8E6A8E4F845888F5
:100B5000BC81B619BB8BE88DF98DE80FF91FFD8BB1
:100B6000EC8B8B89FA8D8F0F2A8D3B8D4E895F8997
:100B70002417350799F1877041F4C1010196E9897D
:100B8000FA89E20DF31DB4901C01B7FE1EC0D4011A
:100B9000ED91FC91BB81B13061F40480F581E02DD1
:100BA0002E813F814C895D896A8D7B8DC4010995B9
:100BB0000CC00684F785E02DEE80FF80860196014B
:100BC0004D855E85B201C4010995BB0CEA8DFB8D94
:100BD0003196FB8FEA8F4C0C5D1CC3CF5C818885FE
:100BE000580F5C83A39499CF6B960FB6F894DEBF31
:100BF0000FBECDBFDF91CF911F910F91FF90EF906E
:100C0000DF90CF90BF90AF909F908F907F906F902C
:100C10005F904F903F902F900895AF92BF92CF92E8
:100C2000EF92FF920F931F93CF93DF93EC01262F48
:100C3000888D998D009709F042C06A3069F42C893B
:100C40008E859F8538E0239F800D911D11249F87FD
:100C50008E871D861C86ACC06D3009F4A9C08E89B4
:100C60008823C1F03C898C859D8546E0349F800DAA
:100C7000911D112448855985841795075CF01D86C0
:100C80001C868E859F85E8E03E9F800D911D112476
:100C90009F878E87EA88FB88088919894E855F853A
:100CA0006C857D85CC88CE010E9467042C898C855B
:100CB0009D85F6E02F9F800D911D112441C06A3063
:100CC00079F41D861C862C89FC013696E4918E856C
:100CD0009F852E9F800D911D11249F878E8768C050
:100CE0006D3009F465C0AC014C5F5F4FFA0134917F
:100CF000631708F45DC03196E491E61708F458C014
:100D0000FA014491362F341BFC013296A590B49021
:100D1000F7E03F9FA00CB11C1124F50132963491ED
:100D20003196E491332311F0E1110DC0F5013496B1
:100D3000E4912C898C859D85E29F800D911D112465
:100D40009D878C8735C0F501359644915E89552382
:100D500011F16C89E32FF0E0E40FF11D47FDFA95E6
:100D60006E9FD0016F9FB00D11244C855D854A0F99
:100D70005B1FE885F9854E175F076CF01D861C86A2
:100D8000FC013696E4918E859F856E9F800D911DA6
:100D900011249F878E87EA88FB88088919894E85E8
:100DA0005F856C857D85CC88CE010E946704BECFAF
:100DB00081E090E0DF91CF911F910F91FF90EF9034
:100DC000CF90BF90AF900895EF92FF920F931F9333
:100DD000DC01ED91FC9111971A960D911C911B97D6
:100DE00018962D913C9119970684F785E02D7B018B
:100DF00040E050E060E070E009951F910F91FF9096
:100E0000EF9008956F927F928F929F92AF92BF92D0
:100E1000CF92DF92EF92FF920F931F93CF93DF93C6
:100E20006C015A014801EB013B01620E731EC615AD
:100E3000D70574F4D601ED91FC910084F185E02D85
:100E400087019401A501BE01C60109952196EFCF46
:100E5000DF91CF911F910F91FF90EF90DF90CF9096
:100E6000BF90AF909F908F907F906F900895EF927A
:100E7000FF920F931F93DC01ED91FC91260F371F1A
:100E8000215031090680F781E02D78018A0109950A
:100E90001F910F91FF90EF900895EF92FF920F93A3
:100EA0001F937801DC01ED91FC91240F351F89011E
:100EB000015011090680F781E02D9B0109951F91D2
:100EC0000F91FF90EF9008956F927F928F929F9273
:100ED000AF92BF92CF92DF92EF92FF920F931F9348
:100EE000CF93DF93EC014B015A0169013801E8818E
:100EF000F9810284F385E02D87010995E881F98164
:100F0000A501460D571D415051090284F385E02D7E
:100F10009601B401CE010995E881F9810084F1853B
:100F2000E02D9301A501B401CE010995E881F98175
:100F3000C80CD91CB601615071090084F185E02DFF
:100F40009301A501CE010995DF91CF911F910F91DA
:100F5000FF90EF90DF90CF90BF90AF909F908F90D9
:100F60007F906F9008952F923F924F925F926F9271
:100F70007F928F929F92AF92BF92CF92DF92EF9229
:100F8000FF920F931F93CF93DF9300D01F92CDB7A3
:100F9000DEB74C017B836A836A015901170198010E
:100FA000241B350B37FF03C0319521953109C5014D
:100FB0004A815B81841B950B97FF03C091958195B6
:100FC000910951E059838217930714F019820BC0DD
:100FD0009A2D8B2D5801092F182F9A818B81DB8236
:100FE000CA82C92ED82E8A819B81A816B9065CF4C4
:100FF0009C2D8D2D6801092F182F9A818B81BB8222
:10100000AA82A92EB82E2501AA81BB814A1A5B0AA1
:1010100038016C187D0877FE03C0719461947108E3
:10102000720157FE03C0BFEFEB1AFB0AF594E79479
:10103000C016D1061CF00FEF1FEF1FC001E010E03B
:101040001CC0D401ED91FC91B9810480F581E02DA3
:101050009101BB23C1F04A815B81B601C4010995AE
:10106000E618F708F7FE04C0C00ED11EE40CF51C0C
:10107000EA81FB813196FB83EA834A815B81A41676
:10108000B506FCF604C0A6016A817B81E7CF0F900C
:101090000F900F90DF91CF911F910F91FF90EF90E4
:1010A000DF90CF90BF90AF909F908F907F906F9088
:1010B0005F904F903F902F90089585ED8093BC00F6
:1010C0008091BC0084FDFCCF10929F010895409157
:1010D0004A01262F30E0240F311D21323105DCF486
:1010E00020919F012430C9F4FC0180E090E0861734
:1010F00058F430914A012191DC01A85DBE4FA30F45
:10110000B11D2C930196F3CF80914A01680F609333
:101110004A0180E0089581E0089582E008950895ED
:1011200081E090E03091750120917401321710F444
:1011300080E090E0919581959109089580917501E5
:1011400090917401891730F48F5F8093750180E06E
:1011500090E008958FEF9FEF08958091740190E0E3
:1011600020917501821B91090895CF92DF92EF9231
:10117000FF920F931F93CF93DF937C01262F972F1E
:101180008A018091A001882391F0C62FD72F6E018C
:10119000C40ED51ECC15DD0571F06991D701ED9116
:1011A000FC910190F081E02DC7010995F3CF642FE8
:1011B000822F0E946708C801DF91CF911F910F9184
:1011C000FF90EF90DF90CF900895CF93DF931F9221
:1011D000CDB7DEB769832091A0012223D1F0209101
:1011E000C301203240F021E030E0FC013383228350
:1011F00080E090E015C08091A101E82FF0E0EE556D
:10120000FE4F998190838F5F8093A1018093C301EA
:1012100005C061E0CE0101960E94670881E090E080
:101220000F90DF91CF910895CF93C62FFC01828D4F
:1012300091E09093A0018093C2011092A1011092BD
:10124000C3016DEF8CEC91E00E94E5086C2F8CECF3
:1012500091E00E94E508CF910C940C031F93CF936B
:10126000DF936091F30188ED91E00E941409C4E2DC
:1012700011E08091F2011093A0018093C2011092BD
:10128000A1011092C3016C2F8CEC91E00E94E50843
:10129000D8E160E08CEC91E00E94E508D150C9F7FC
:1012A0000E940C03C85EC43B21F7DF91CF911F91D0
:1012B00008950F931F93CF93DF9300D0CDB7DEB780
:1012C0008C012A8349830E941409F801828D91E0E0
:1012D0009093A0018093C2011092A1011092C301CA
:1012E0004981642F8CEC91E00E94E5082A81622FED
:1012F0008CEC91E00E94E5080F900F90DF91CF9168
:101300001F910F910C940C0320E0482F6091F30182
:1013100088ED91E00C945909DC015596EC91E2308E
:1013200059F0E330B1F0E130D1F4EFE0F0E0E41B4C
:10133000F50BAB01BF0113C0EFE0F0E0DF01A61B2E
:10134000B70BBD01E8E0F0E0DF01A41BB50BAD0178
:1013500006C0E8E0F0E0E61BF70BBA01AF01603130
:101360007105A8F44930510590F4F9012F3F31057A
:1013700019F010F0EFEFF0E06C5DB0E14B9F600D05
:101380001124462F2E2FFC01638D0C9459090895CA
:10139000803270F4262F30E0482F469546954695CA
:1013A00050E08770682F70E088ED91E00C948C0914
:1013B00008958F929F92AF92BF92CF92DF92EF9259
:1013C000FF92CF936B017C0149015A0184B1866081
:1013D00084B960E079E08DE390E0A70196010E9476
:1013E0005E0E69017A0181E0C81AD108E108F108AE
:1013F000C114D10481E0E806F10458F0CD2CDE2CB4
:10140000EF2CFF2481E0C81AD108E108F108C4E0FC
:1014100001C0C1E0C701B60128E230E040E050E081
:101420000E945E0E81149104A104B104E1F06FB733
:10143000F8948091C4019091C501A091C601B0912A
:10144000C7016FBF880D991DAA1DBB1D8093C801E0
:101450009093C901A093CA01B093CB0180916F0012
:10146000826080936F00D0928700C0928600809146
:10147000840090918500A0E0B0E0C816D906EA0685
:10148000FB0620F4D0928500C0928400C061C09316
:10149000810030938B0020938A0030938900209341
:1014A000880080EB80938000CF91FF90EF90DF90D9
:1014B000CF90BF90AF909F908F9008950E94860E1E
:1014C0001F920F920FB60F9211242F933F938F9379
:1014D0009F93AF93BF938091C4019091C501A09158
:1014E000C601B091C70130916F0126E0230F2D375F
:1014F00020F40296A11DB11D05C029E8230F039613
:10150000A11DB11D20936F018093C4019093C5016B
:10151000A093C601B093C7018091700190917101B1
:10152000A0917201B09173010196A11DB11D80932C
:10153000700190937101A0937201B0937301BF91F8
:10154000AF919F918F913F912F910F900FBE0F9070
:101550001F9018951F920F920FB60F9211244F9360
:101560005F936F937F938F939F93AF93BF938FB747
:10157000F8944091C4015091C5016091C6017091E9
:10158000C7018FBF8091C8019091C901A091CA0184
:10159000B091CB01481759076A077B0768F0809123
:1015A0006F008D7F80936F0082E08093810081E0E7
:1015B0008093800029982A98BF91AF919F918F9135
:1015C0007F916F915F914F910F900FBE0F901F9081
:1015D00018951F920F920FB60F9211242F933F93DD
:1015E0004F935F936F937F938F939F93AF93BF932B
:1015F000EF93FF938091B900887F803609F49CC0F7
:1016000068F5883209F45BC090F4803109F454C065
:1016100038F4882309F4F6C0883009F44DC0F6C0C8
:10162000883109F44CC0803209F45DC0EFC08034C9
:1016300009F468C048F4803309F455C0883309F0D0
:10164000E5C080939D01D8C0803509F44FC088352E
:1016500009F45DC0883409F0D9C0D6C0883909F4CE
:10166000C7C0A8F4883709F467C038F4883609F48D
:1016700063C0803709F460C0C9C0883809F4B8C0B5
:10168000803909F45FC0803809F0C0C05BC0803B7E
:1016900009F486C038F4803A09F466C0883A09F43F
:1016A0007FC0B4C0803C09F4A7C0883C09F4A4C042
:1016B000883B09F48AC0AAC080917A0110C0909139
:1016C0009C0180919B01981770F5E0919C0181E04D
:1016D0008E0F80939C01F0E0E558FE4F808180934F
:1016E000BB0085EC86C080939D018EC0E0919C017B
:1016F00081E08E0F80939C018091BB00F0E0E55863
:10170000FE4F808390919C0180919B016EC0E0917F
:101710009C0181E08E0F80939C018091BB00F0E0E2
:10172000E558FE4F808380919E0181116DC081E05C
:101730008093790184EA61C083E080939F011092D5
:101740006E01CFCF80916E01803208F051C0E091E0
:101750006E0181E08E0F80936E018091BB00F0E0FE
:10176000E25BFE4F8083BDCF85EC8093BC0010927E
:101770009F0180916E01803230F4E0916E01F0E0C3
:10178000E25BFE4F108260916E0170E0E0914C01CF
:10179000F0914D018EE491E0099510926E0136C0F2
:1017A00084E080939F0110924B0110924A01E091D6
:1017B0004801F0914901099580914A01811105C0C4
:1017C00081E080934A0110922801E0914B0181E071
:1017D0008E0F80934B01F0E0E85DFE4F8081809397
:1017E000BB0090914B0180914A01981708F479CF82
:1017F00085E88093BC000AC085EC8093BC00109201
:101800009F0104C010929D010E945D08FF91EF911D
:10181000BF91AF919F918F917F916F915F914F9108
:101820003F912F910F900FBE0F901F901895ECECE9
:10183000F1E01382128288EE93E0A0E0B0E08483AE
:101840009583A683B78384E091E091838083E8ED5C
:10185000F1E01382128220E130E03583248389E0B5
:1018600090E0978386833187208793878287158AC4
:10187000158614861786168681E0848B2FEF3FEF3E
:10188000338B228B318B208B868B178A118E108E97
:1018900084E191E0918380830895789484B5826097
:1018A00084BD84B5816084BD85B5826085BD85B504
:1018B000816085BD80916E00816080936E00109282
:1018C00081008091810082608093810080918100FD
:1018D000816080938100809180008160809380008E
:1018E0008091B10084608093B1008091B0008160EC
:1018F0008093B00080917A00846080937A00809118
:101900007A00826080937A0080917A008E7F809343
:101910007A0080917A00806880937A001092C100EA
:1019200084B790E09093780180937701EEE9F5E039
:101930008491EAE8F5E02491222399F030E0220F27
:10194000331FF901E859FA4FA591B491F901E45810
:10195000FA4F259134919FB7F894EC91E82BEC93D2
:101960009FBFECE9F5E08491E8E8F5E024912223BB
:10197000D9F030E0220F331FF901E859FA4F4591B1
:101980005491F901E458FA4FA591B4912FB7F89406
:10199000FA019081382F3095892F832380838C9191
:1019A000E32FE823EC932FBF84E00E94BD03109245
:1019B000760110927501109274011092A10110929B
:1019C000C30110929F0181E080939E0110927901E2
:1019D00082E10E94BD0383E10E94BD038091B900B2
:1019E0008E7F8093B9008091B9008D7F8093B9007C
:1019F00080E28093B80085E48093BC0084E7809304
:101A0000F2011092F30120E04AE06BE088ED91E0F2
:101A10000E9459096AE070E080E090E00E942C0486
:101A200021E04AE06BE088ED91E00E94590920E056
:101A300040E06BE088ED91E00E9459092091F301AC
:101A4000283008F020E041E06BE088ED91E00E9452
:101A500059090E942E0910E0D0E02FEF4D2F612F81
:101A600088ED91E00E945909DF5FD231B1F71F5F25
:101A7000183091F720E046E06BE088ED91E00E949D
:101A8000590981E00E94840983E00E94840985E06D
:101A90000E94840987E00E94840989E00E948409E9
:101AA0008AE00E9484098BE00E9484098CE00E94F5
:101AB00084098DE00E9484090E94E303BB24B3944F
:101AC000019709F0B12CF12C912CEE24E394D0E095
:101AD00077247394EE2029F00E94E303019709F420
:101AE000E12C8FEF8C0F11E01C0F992021F0082FB3
:101AF00022E0D22E04C0012F182F9EEFD92EDC0E2B
:101B00000E942E09802F877009F4F724FF2019F016
:101B100020E830E002C020E030E044E050E060E047
:101B200070E088ED91E00E948C09FF2019F020E020
:101B300030E002C020E830E044E050E061E070E0D6
:101B400088ED91E00E948C09F02FFF71AF2E6FEFAE
:101B50008F2F0E94C809DD23A9F060E28C2F8F71BE
:101B60000E94C809D23070F060E1812F8F710E940D
:101B7000C809D23039F068E08D2D8F710E94C809F4
:101B800015E002C0DF5FFCCFE11018C00E94E30344
:101B9000892BF1F013C08A94811051C00E942E0944
:101BA0006FEF88E00E94C8096DE770E080E090E088
:101BB0000E942C049724EE24E394D0E061E070E0CE
:101BC00080E090E00E942C041150F1F6C02F82CFEB
:101BD0000E942E096FEF8A2D0E94C80988E0A81282
:101BE0005CC0BB2051F12DE730E040E050E06CEDEF
:101BF00070E080E090E00E94D9096DE770E080E03D
:101C000090E00E942C042DE730E040E050E066E2D6
:101C100071E080E090E00E94D9096DE770E080E01B
:101C200090E00E942C042EE531E040E050E068EBAB
:101C300071E080E090E00E94D90983E0882EE12CD9
:101C40000E942E09C12CD12CC0E0D0E08C2F8170D5
:101C50008E1103C02FEF30E002C020E030E0A6017B
:101C6000BE0188ED91E00E948C092196C830D10513
:101C700069F78FEFC81AD80AE4E0CE16D10421F72D
:101C80006DE770E080E090E00E942C04F1E0EF1638
:101C900009F481CFEE24E394D3CFBB2051F024EF9D
:101CA00031E040E050E06CE870E080E090E00E94BD
:101CB000D90968EE73E080E090E07ACFA1E21A2EB5
:101CC000AA1BBB1BFD010DC0AA1FBB1FEE1FFF1FE0
:101CD000A217B307E407F50720F0A21BB30BE40B30
:101CE000F50B661F771F881F991F1A9469F7609577
:101CF0007095809590959B01AC01BD01CF01089531
:101D0000EE0FFF1F0590F491E02D099481E090E023
:0A1D1000F8940C948B0EF894FFCFAA
:101D1A0000000000E508B508AD089E0890088F0885
:101D2A00000000000D0669038C09B3074D07370749
:081D3A0064070207E4066604D9
:00000001FF
